{
  "_format": "hh-sol-artifact-1",
  "contractName": "SwapV2",
  "sourceName": "contracts/SwapV2.sol",
  "abi": [
    {
      "anonymous": false,
      "inputs": [
        {
          "indexed": false,
          "internalType": "address",
          "name": "_tokenIn",
          "type": "address"
        },
        {
          "indexed": false,
          "internalType": "address",
          "name": "_tokenOut",
          "type": "address"
        },
        {
          "indexed": false,
          "internalType": "uint256",
          "name": "_rate",
          "type": "uint256"
        },
        {
          "indexed": false,
          "internalType": "uint32",
          "name": "_rateDecimals",
          "type": "uint32"
        }
      ],
      "name": "ChangeRate",
      "type": "event"
    },
    {
      "anonymous": false,
      "inputs": [
        {
          "indexed": false,
          "internalType": "uint8",
          "name": "version",
          "type": "uint8"
        }
      ],
      "name": "Initialized",
      "type": "event"
    },
    {
      "anonymous": false,
      "inputs": [
        {
          "indexed": true,
          "internalType": "address",
          "name": "previousOwner",
          "type": "address"
        },
        {
          "indexed": true,
          "internalType": "address",
          "name": "newOwner",
          "type": "address"
        }
      ],
      "name": "OwnershipTransferred",
      "type": "event"
    },
    {
      "anonymous": false,
      "inputs": [
        {
          "indexed": false,
          "internalType": "address",
          "name": "_tokenIn",
          "type": "address"
        },
        {
          "indexed": false,
          "internalType": "address",
          "name": "_tokenOut",
          "type": "address"
        },
        {
          "indexed": false,
          "internalType": "uint256",
          "name": "_amount",
          "type": "uint256"
        }
      ],
      "name": "Swapping",
      "type": "event"
    },
    {
      "stateMutability": "payable",
      "type": "fallback"
    },
    {
      "inputs": [],
      "name": "__Swap_init",
      "outputs": [],
      "stateMutability": "nonpayable",
      "type": "function"
    },
    {
      "inputs": [
        {
          "internalType": "address",
          "name": "_tokenIn",
          "type": "address"
        },
        {
          "internalType": "address",
          "name": "_tokenOut",
          "type": "address"
        },
        {
          "internalType": "uint256",
          "name": "_rate",
          "type": "uint256"
        },
        {
          "internalType": "uint32",
          "name": "_rateDecimals",
          "type": "uint32"
        }
      ],
      "name": "changeRate",
      "outputs": [],
      "stateMutability": "nonpayable",
      "type": "function"
    },
    {
      "inputs": [],
      "name": "owner",
      "outputs": [
        {
          "internalType": "address",
          "name": "",
          "type": "address"
        }
      ],
      "stateMutability": "view",
      "type": "function"
    },
    {
      "inputs": [],
      "name": "renounceOwnership",
      "outputs": [],
      "stateMutability": "nonpayable",
      "type": "function"
    },
    {
      "inputs": [
        {
          "internalType": "address",
          "name": "_tokenIn",
          "type": "address"
        },
        {
          "internalType": "address",
          "name": "_tokenOut",
          "type": "address"
        },
        {
          "internalType": "uint256",
          "name": "_amount",
          "type": "uint256"
        }
      ],
      "name": "swap",
      "outputs": [],
      "stateMutability": "payable",
      "type": "function"
    },
    {
      "inputs": [
        {
          "internalType": "address",
          "name": "",
          "type": "address"
        },
        {
          "internalType": "address",
          "name": "",
          "type": "address"
        }
      ],
      "name": "tokenRate",
      "outputs": [
        {
          "internalType": "uint256",
          "name": "rate",
          "type": "uint256"
        },
        {
          "internalType": "uint32",
          "name": "rateDecimals",
          "type": "uint32"
        }
      ],
      "stateMutability": "view",
      "type": "function"
    },
    {
      "inputs": [
        {
          "internalType": "address",
          "name": "newOwner",
          "type": "address"
        }
      ],
      "name": "transferOwnership",
      "outputs": [],
      "stateMutability": "nonpayable",
      "type": "function"
    },
    {
      "inputs": [
        {
          "internalType": "address",
          "name": "_token",
          "type": "address"
        },
        {
          "internalType": "uint256",
          "name": "_amount",
          "type": "uint256"
        },
        {
          "internalType": "address",
          "name": "_receiver",
          "type": "address"
        }
      ],
      "name": "withdraw",
      "outputs": [],
      "stateMutability": "payable",
      "type": "function"
    },
    {
      "stateMutability": "payable",
      "type": "receive"
    }
  ],
  "bytecode": "0x608060405234801561001057600080fd5b50611546806100206000396000f3fe60806040526004361061007f5760003560e01c8063715018a61161004e578063715018a6146101225780638da5cb5b14610139578063df791e5014610164578063f2fde38b1461018057610086565b806316452e88146100885780632c798a6c146100b157806339cda63a146100ef57806369328dec1461010657610086565b3661008657005b005b34801561009457600080fd5b506100af60048036038101906100aa9190610bcc565b6101a9565b005b3480156100bd57600080fd5b506100d860048036038101906100d39190610c33565b610359565b6040516100e6929190610c91565b60405180910390f35b3480156100fb57600080fd5b5061010461039a565b005b610120600480360381019061011b9190610cba565b6104d8565b005b34801561012e57600080fd5b506101376104e5565b005b34801561014557600080fd5b5061014e6104f9565b60405161015b9190610d1c565b60405180910390f35b61017e60048036038101906101799190610d37565b610523565b005b34801561018c57600080fd5b506101a760048036038101906101a29190610d8a565b61084a565b005b6101b16108ce565b600082116101f4576040517f08c379a00000000000000000000000000000000000000000000000000000000081526004016101eb90610e14565b60405180910390fd5b81606560008673ffffffffffffffffffffffffffffffffffffffff1673ffffffffffffffffffffffffffffffffffffffff16815260200190815260200160002060008573ffffffffffffffffffffffffffffffffffffffff1673ffffffffffffffffffffffffffffffffffffffff1681526020019081526020016000206000018190555080606560008673ffffffffffffffffffffffffffffffffffffffff1673ffffffffffffffffffffffffffffffffffffffff16815260200190815260200160002060008573ffffffffffffffffffffffffffffffffffffffff1673ffffffffffffffffffffffffffffffffffffffff16815260200190815260200160002060010160006101000a81548163ffffffff021916908363ffffffff1602179055507ff9adba2dcda7bee0d48d8b2caa840334756f5bc07e750a33328cd783e04ecc838484848460405161034b9493929190610e34565b60405180910390a150505050565b6065602052816000526040600020602052806000526040600020600091509150508060000154908060010160009054906101000a900463ffffffff16905082565b60008060019054906101000a900460ff161590508080156103cb5750600160008054906101000a900460ff1660ff16105b806103f857506103da3061094c565b1580156103f75750600160008054906101000a900460ff1660ff16145b5b610437576040517f08c379a000000000000000000000000000000000000000000000000000000000815260040161042e90610eeb565b60405180910390fd5b60016000806101000a81548160ff021916908360ff1602179055508015610474576001600060016101000a81548160ff0219169083151502179055505b61047c61096f565b80156104d55760008060016101000a81548160ff0219169083151502179055507f7f26b83ff96e1f2b6a682f133852f6798a09c465da95921460cefb384740249860016040516104cc9190610f5d565b60405180910390a15b50565b6104e06108ce565b505050565b6104ed6108ce565b6104f760006109c8565b565b6000603360009054906101000a900473ffffffffffffffffffffffffffffffffffffffff16905090565b8173ffffffffffffffffffffffffffffffffffffffff168373ffffffffffffffffffffffffffffffffffffffff161415610592576040517f08c379a000000000000000000000000000000000000000000000000000000000815260040161058990610fea565b60405180910390fd5b6000606560008573ffffffffffffffffffffffffffffffffffffffff1673ffffffffffffffffffffffffffffffffffffffff16815260200190815260200160002060008473ffffffffffffffffffffffffffffffffffffffff1673ffffffffffffffffffffffffffffffffffffffff1681526020019081526020016000206000015411610654576040517f08c379a000000000000000000000000000000000000000000000000000000000815260040161064b90611056565b60405180910390fd5b600034905060008073ffffffffffffffffffffffffffffffffffffffff168573ffffffffffffffffffffffffffffffffffffffff1614610692578291505b600082116106d5576040517f08c379a00000000000000000000000000000000000000000000000000000000081526004016106cc906110c2565b60405180910390fd5b606560008673ffffffffffffffffffffffffffffffffffffffff1673ffffffffffffffffffffffffffffffffffffffff16815260200190815260200160002060008573ffffffffffffffffffffffffffffffffffffffff1673ffffffffffffffffffffffffffffffffffffffff16815260200190815260200160002060010160009054906101000a900463ffffffff16600a6107719190611244565b606560008773ffffffffffffffffffffffffffffffffffffffff1673ffffffffffffffffffffffffffffffffffffffff16815260200190815260200160002060008673ffffffffffffffffffffffffffffffffffffffff1673ffffffffffffffffffffffffffffffffffffffff16815260200190815260200160002060000154836107fc919061128f565b6108069190611318565b90507f7ff1586ed15559afc1daaf59817012ac6ece940888953b9bedc4ec36ea53a46e85858560405161083b93929190611349565b60405180910390a15050505050565b6108526108ce565b600073ffffffffffffffffffffffffffffffffffffffff168173ffffffffffffffffffffffffffffffffffffffff1614156108c2576040517f08c379a00000000000000000000000000000000000000000000000000000000081526004016108b9906113f2565b60405180910390fd5b6108cb816109c8565b50565b6108d6610a8e565b73ffffffffffffffffffffffffffffffffffffffff166108f46104f9565b73ffffffffffffffffffffffffffffffffffffffff161461094a576040517f08c379a00000000000000000000000000000000000000000000000000000000081526004016109419061145e565b60405180910390fd5b565b6000808273ffffffffffffffffffffffffffffffffffffffff163b119050919050565b600060019054906101000a900460ff166109be576040517f08c379a00000000000000000000000000000000000000000000000000000000081526004016109b5906114f0565b60405180910390fd5b6109c6610a96565b565b6000603360009054906101000a900473ffffffffffffffffffffffffffffffffffffffff16905081603360006101000a81548173ffffffffffffffffffffffffffffffffffffffff021916908373ffffffffffffffffffffffffffffffffffffffff1602179055508173ffffffffffffffffffffffffffffffffffffffff168173ffffffffffffffffffffffffffffffffffffffff167f8be0079c531659141344cd1fd0a4f28419497f9722a3daafe3b4186f6b6457e060405160405180910390a35050565b600033905090565b600060019054906101000a900460ff16610ae5576040517f08c379a0000000000000000000000000000000000000000000000000000000008152600401610adc906114f0565b60405180910390fd5b610af5610af0610a8e565b6109c8565b565b600080fd5b600073ffffffffffffffffffffffffffffffffffffffff82169050919050565b6000610b2782610afc565b9050919050565b610b3781610b1c565b8114610b4257600080fd5b50565b600081359050610b5481610b2e565b92915050565b6000819050919050565b610b6d81610b5a565b8114610b7857600080fd5b50565b600081359050610b8a81610b64565b92915050565b600063ffffffff82169050919050565b610ba981610b90565b8114610bb457600080fd5b50565b600081359050610bc681610ba0565b92915050565b60008060008060808587031215610be657610be5610af7565b5b6000610bf487828801610b45565b9450506020610c0587828801610b45565b9350506040610c1687828801610b7b565b9250506060610c2787828801610bb7565b91505092959194509250565b60008060408385031215610c4a57610c49610af7565b5b6000610c5885828601610b45565b9250506020610c6985828601610b45565b9150509250929050565b610c7c81610b5a565b82525050565b610c8b81610b90565b82525050565b6000604082019050610ca66000830185610c73565b610cb36020830184610c82565b9392505050565b600080600060608486031215610cd357610cd2610af7565b5b6000610ce186828701610b45565b9350506020610cf286828701610b7b565b9250506040610d0386828701610b45565b9150509250925092565b610d1681610b1c565b82525050565b6000602082019050610d316000830184610d0d565b92915050565b600080600060608486031215610d5057610d4f610af7565b5b6000610d5e86828701610b45565b9350506020610d6f86828701610b45565b9250506040610d8086828701610b7b565b9150509250925092565b600060208284031215610da057610d9f610af7565b5b6000610dae84828501610b45565b91505092915050565b600082825260208201905092915050565b7f52617465206d7573742067726561746572207468616e20300000000000000000600082015250565b6000610dfe601883610db7565b9150610e0982610dc8565b602082019050919050565b60006020820190508181036000830152610e2d81610df1565b9050919050565b6000608082019050610e496000830187610d0d565b610e566020830186610d0d565b610e636040830185610c73565b610e706060830184610c82565b95945050505050565b7f496e697469616c697a61626c653a20636f6e747261637420697320616c72656160008201527f647920696e697469616c697a6564000000000000000000000000000000000000602082015250565b6000610ed5602e83610db7565b9150610ee082610e79565b604082019050919050565b60006020820190508181036000830152610f0481610ec8565b9050919050565b6000819050919050565b600060ff82169050919050565b6000819050919050565b6000610f47610f42610f3d84610f0b565b610f22565b610f15565b9050919050565b610f5781610f2c565b82525050565b6000602082019050610f726000830184610f4e565b92915050565b7f546f6b656e20696e20616e6420746f6b656e206f7574206d757374206265206460008201527f6966666572656e74000000000000000000000000000000000000000000000000602082015250565b6000610fd4602883610db7565b9150610fdf82610f78565b604082019050919050565b6000602082019050818103600083015261100381610fc7565b9050919050565b7f52617465206d7573742062652067726561746572207468616e20300000000000600082015250565b6000611040601b83610db7565b915061104b8261100a565b602082019050919050565b6000602082019050818103600083015261106f81611033565b9050919050565b7f416d6f756e74206d7573742062652067726561746572207468616e2030000000600082015250565b60006110ac601d83610db7565b91506110b782611076565b602082019050919050565b600060208201905081810360008301526110db8161109f565b9050919050565b7f4e487b7100000000000000000000000000000000000000000000000000000000600052601160045260246000fd5b60008160011c9050919050565b6000808291508390505b600185111561116857808604811115611144576111436110e2565b5b60018516156111535780820291505b808102905061116185611111565b9450611128565b94509492505050565b600082611181576001905061123d565b8161118f576000905061123d565b81600181146111a557600281146111af576111de565b600191505061123d565b60ff8411156111c1576111c06110e2565b5b8360020a9150848211156111d8576111d76110e2565b5b5061123d565b5060208310610133831016604e8410600b84101617156112135782820a90508381111561120e5761120d6110e2565b5b61123d565b611220848484600161111e565b92509050818404811115611237576112366110e2565b5b81810290505b9392505050565b600061124f82610b5a565b915061125a83610b90565b92506112877fffffffffffffffffffffffffffffffffffffffffffffffffffffffffffffffff8484611171565b905092915050565b600061129a82610b5a565b91506112a583610b5a565b9250817fffffffffffffffffffffffffffffffffffffffffffffffffffffffffffffffff04831182151516156112de576112dd6110e2565b5b828202905092915050565b7f4e487b7100000000000000000000000000000000000000000000000000000000600052601260045260246000fd5b600061132382610b5a565b915061132e83610b5a565b92508261133e5761133d6112e9565b5b828204905092915050565b600060608201905061135e6000830186610d0d565b61136b6020830185610d0d565b6113786040830184610c73565b949350505050565b7f4f776e61626c653a206e6577206f776e657220697320746865207a65726f206160008201527f6464726573730000000000000000000000000000000000000000000000000000602082015250565b60006113dc602683610db7565b91506113e782611380565b604082019050919050565b6000602082019050818103600083015261140b816113cf565b9050919050565b7f4f776e61626c653a2063616c6c6572206973206e6f7420746865206f776e6572600082015250565b6000611448602083610db7565b915061145382611412565b602082019050919050565b600060208201905081810360008301526114778161143b565b9050919050565b7f496e697469616c697a61626c653a20636f6e7472616374206973206e6f74206960008201527f6e697469616c697a696e67000000000000000000000000000000000000000000602082015250565b60006114da602b83610db7565b91506114e58261147e565b604082019050919050565b60006020820190508181036000830152611509816114cd565b905091905056fea2646970667358221220aeca26b45e0f011574052537deb3c305ed4e49313784dfe1dd7db520978fcc2764736f6c63430008090033",
  "linkReferences": {},
  "deployedLinkReferences": {}
}