{
  "_format": "hh-sol-artifact-1",
  "contractName": "Swap",
  "sourceName": "contracts/Swap.sol",
  "abi": [
    {
      "anonymous": false,
      "inputs": [
        {
          "indexed": false,
          "internalType": "address",
          "name": "_tokenIn",
          "type": "address"
        },
        {
          "indexed": false,
          "internalType": "address",
          "name": "_tokenOut",
          "type": "address"
        },
        {
          "indexed": false,
          "internalType": "uint256",
          "name": "_rate",
          "type": "uint256"
        },
        {
          "indexed": false,
          "internalType": "uint32",
          "name": "_rateDecimals",
          "type": "uint32"
        }
      ],
      "name": "ChangeRate",
      "type": "event"
    },
    {
      "anonymous": false,
      "inputs": [
        {
          "indexed": false,
          "internalType": "uint8",
          "name": "version",
          "type": "uint8"
        }
      ],
      "name": "Initialized",
      "type": "event"
    },
    {
      "anonymous": false,
      "inputs": [
        {
          "indexed": true,
          "internalType": "address",
          "name": "previousOwner",
          "type": "address"
        },
        {
          "indexed": true,
          "internalType": "address",
          "name": "newOwner",
          "type": "address"
        }
      ],
      "name": "OwnershipTransferred",
      "type": "event"
    },
    {
      "anonymous": false,
      "inputs": [
        {
          "indexed": false,
          "internalType": "address",
          "name": "_tokenIn",
          "type": "address"
        },
        {
          "indexed": false,
          "internalType": "address",
          "name": "_tokenOut",
          "type": "address"
        },
        {
          "indexed": false,
          "internalType": "uint256",
          "name": "_amount",
          "type": "uint256"
        }
      ],
      "name": "Swapping",
      "type": "event"
    },
    {
      "stateMutability": "payable",
      "type": "fallback"
    },
    {
      "inputs": [],
      "name": "__Swap_init",
      "outputs": [],
      "stateMutability": "nonpayable",
      "type": "function"
    },
    {
      "inputs": [
        {
          "internalType": "address",
          "name": "_tokenIn",
          "type": "address"
        },
        {
          "internalType": "address",
          "name": "_tokenOut",
          "type": "address"
        },
        {
          "internalType": "uint256",
          "name": "_rate",
          "type": "uint256"
        },
        {
          "internalType": "uint32",
          "name": "_rateDecimals",
          "type": "uint32"
        }
      ],
      "name": "changeRate",
      "outputs": [],
      "stateMutability": "nonpayable",
      "type": "function"
    },
    {
      "inputs": [],
      "name": "owner",
      "outputs": [
        {
          "internalType": "address",
          "name": "",
          "type": "address"
        }
      ],
      "stateMutability": "view",
      "type": "function"
    },
    {
      "inputs": [],
      "name": "renounceOwnership",
      "outputs": [],
      "stateMutability": "nonpayable",
      "type": "function"
    },
    {
      "inputs": [
        {
          "internalType": "address",
          "name": "_tokenIn",
          "type": "address"
        },
        {
          "internalType": "address",
          "name": "_tokenOut",
          "type": "address"
        },
        {
          "internalType": "uint256",
          "name": "_amount",
          "type": "uint256"
        }
      ],
      "name": "swap",
      "outputs": [],
      "stateMutability": "payable",
      "type": "function"
    },
    {
      "inputs": [
        {
          "internalType": "address",
          "name": "",
          "type": "address"
        },
        {
          "internalType": "address",
          "name": "",
          "type": "address"
        }
      ],
      "name": "tokenRate",
      "outputs": [
        {
          "internalType": "uint256",
          "name": "rate",
          "type": "uint256"
        },
        {
          "internalType": "uint32",
          "name": "rateDecimals",
          "type": "uint32"
        }
      ],
      "stateMutability": "view",
      "type": "function"
    },
    {
      "inputs": [
        {
          "internalType": "address",
          "name": "newOwner",
          "type": "address"
        }
      ],
      "name": "transferOwnership",
      "outputs": [],
      "stateMutability": "nonpayable",
      "type": "function"
    },
    {
      "inputs": [
        {
          "internalType": "address",
          "name": "_token",
          "type": "address"
        },
        {
          "internalType": "uint256",
          "name": "_amount",
          "type": "uint256"
        },
        {
          "internalType": "address",
          "name": "_receiver",
          "type": "address"
        }
      ],
      "name": "withdraw",
      "outputs": [],
      "stateMutability": "payable",
      "type": "function"
    },
    {
      "stateMutability": "payable",
      "type": "receive"
    }
  ],
  "bytecode": "0x608060405234801561001057600080fd5b50612111806100206000396000f3fe60806040526004361061007f5760003560e01c8063715018a61161004e578063715018a6146101225780638da5cb5b14610139578063df791e5014610164578063f2fde38b1461018057610086565b806316452e88146100885780632c798a6c146100b157806339cda63a146100ef57806369328dec1461010657610086565b3661008657005b005b34801561009457600080fd5b506100af60048036038101906100aa9190611344565b6101a9565b005b3480156100bd57600080fd5b506100d860048036038101906100d391906113ab565b610359565b6040516100e6929190611409565b60405180910390f35b3480156100fb57600080fd5b5061010461039a565b005b610120600480360381019061011b9190611432565b6104d8565b005b34801561012e57600080fd5b506101376104e5565b005b34801561014557600080fd5b5061014e6104f9565b60405161015b9190611494565b60405180910390f35b61017e600480360381019061017991906114af565b610523565b005b34801561018c57600080fd5b506101a760048036038101906101a29190611502565b61095b565b005b6101b16109df565b600082116101f4576040517f08c379a00000000000000000000000000000000000000000000000000000000081526004016101eb9061158c565b60405180910390fd5b81606560008673ffffffffffffffffffffffffffffffffffffffff1673ffffffffffffffffffffffffffffffffffffffff16815260200190815260200160002060008573ffffffffffffffffffffffffffffffffffffffff1673ffffffffffffffffffffffffffffffffffffffff1681526020019081526020016000206000018190555080606560008673ffffffffffffffffffffffffffffffffffffffff1673ffffffffffffffffffffffffffffffffffffffff16815260200190815260200160002060008573ffffffffffffffffffffffffffffffffffffffff1673ffffffffffffffffffffffffffffffffffffffff16815260200190815260200160002060010160006101000a81548163ffffffff021916908363ffffffff1602179055507ff9adba2dcda7bee0d48d8b2caa840334756f5bc07e750a33328cd783e04ecc838484848460405161034b94939291906115ac565b60405180910390a150505050565b6065602052816000526040600020602052806000526040600020600091509150508060000154908060010160009054906101000a900463ffffffff16905082565b60008060019054906101000a900460ff161590508080156103cb5750600160008054906101000a900460ff1660ff16105b806103f857506103da30610a5d565b1580156103f75750600160008054906101000a900460ff1660ff16145b5b610437576040517f08c379a000000000000000000000000000000000000000000000000000000000815260040161042e90611663565b60405180910390fd5b60016000806101000a81548160ff021916908360ff1602179055508015610474576001600060016101000a81548160ff0219169083151502179055505b61047c610a80565b80156104d55760008060016101000a81548160ff0219169083151502179055507f7f26b83ff96e1f2b6a682f133852f6798a09c465da95921460cefb384740249860016040516104cc91906116d5565b60405180910390a15b50565b6104e06109df565b505050565b6104ed6109df565b6104f76000610ad9565b565b6000603360009054906101000a900473ffffffffffffffffffffffffffffffffffffffff16905090565b8173ffffffffffffffffffffffffffffffffffffffff168373ffffffffffffffffffffffffffffffffffffffff161415610592576040517f08c379a000000000000000000000000000000000000000000000000000000000815260040161058990611762565b60405180910390fd5b6000606560008573ffffffffffffffffffffffffffffffffffffffff1673ffffffffffffffffffffffffffffffffffffffff16815260200190815260200160002060008473ffffffffffffffffffffffffffffffffffffffff1673ffffffffffffffffffffffffffffffffffffffff1681526020019081526020016000206000015411610654576040517f08c379a000000000000000000000000000000000000000000000000000000000815260040161064b906117ce565b60405180910390fd5b6000349050600061069a6040518060400160405280600781526020017f746f6b656e496e0000000000000000000000000000000000000000000000000081525086610b9f565b6106d96040518060400160405280600881526020017f746f6b656e4f757400000000000000000000000000000000000000000000000081525085610b9f565b600073ffffffffffffffffffffffffffffffffffffffff168573ffffffffffffffffffffffffffffffffffffffff1614610711578291505b6107506040518060400160405280600881526020017f616d6f756e74496e00000000000000000000000000000000000000000000000081525083610c3b565b60008211610793576040517f08c379a000000000000000000000000000000000000000000000000000000000815260040161078a9061183a565b60405180910390fd5b606560008673ffffffffffffffffffffffffffffffffffffffff1673ffffffffffffffffffffffffffffffffffffffff16815260200190815260200160002060008573ffffffffffffffffffffffffffffffffffffffff1673ffffffffffffffffffffffffffffffffffffffff16815260200190815260200160002060010160009054906101000a900463ffffffff16600a61082f91906119bc565b606560008773ffffffffffffffffffffffffffffffffffffffff1673ffffffffffffffffffffffffffffffffffffffff16815260200190815260200160002060008673ffffffffffffffffffffffffffffffffffffffff1673ffffffffffffffffffffffffffffffffffffffff16815260200190815260200160002060000154836108ba9190611a07565b6108c49190611a90565b90506109056040518060400160405280600981526020017f616d6f756e744f7574000000000000000000000000000000000000000000000081525082610c3b565b61090f8583610cd7565b6109198482610d4a565b7f7ff1586ed15559afc1daaf59817012ac6ece940888953b9bedc4ec36ea53a46e85858560405161094c93929190611ac1565b60405180910390a15050505050565b6109636109df565b600073ffffffffffffffffffffffffffffffffffffffff168173ffffffffffffffffffffffffffffffffffffffff1614156109d3576040517f08c379a00000000000000000000000000000000000000000000000000000000081526004016109ca90611b6a565b60405180910390fd5b6109dc81610ad9565b50565b6109e7610e74565b73ffffffffffffffffffffffffffffffffffffffff16610a056104f9565b73ffffffffffffffffffffffffffffffffffffffff1614610a5b576040517f08c379a0000000000000000000000000000000000000000000000000000000008152600401610a5290611bd6565b60405180910390fd5b565b6000808273ffffffffffffffffffffffffffffffffffffffff163b119050919050565b600060019054906101000a900460ff16610acf576040517f08c379a0000000000000000000000000000000000000000000000000000000008152600401610ac690611c68565b60405180910390fd5b610ad7610e7c565b565b6000603360009054906101000a900473ffffffffffffffffffffffffffffffffffffffff16905081603360006101000a81548173ffffffffffffffffffffffffffffffffffffffff021916908373ffffffffffffffffffffffffffffffffffffffff1602179055508173ffffffffffffffffffffffffffffffffffffffff168173ffffffffffffffffffffffffffffffffffffffff167f8be0079c531659141344cd1fd0a4f28419497f9722a3daafe3b4186f6b6457e060405160405180910390a35050565b610c378282604051602401610bb5929190611d10565b6040516020818303038152906040527f319af333000000000000000000000000000000000000000000000000000000007bffffffffffffffffffffffffffffffffffffffffffffffffffffffff19166020820180517bffffffffffffffffffffffffffffffffffffffffffffffffffffffff8381831617835250505050610edd565b5050565b610cd38282604051602401610c51929190611d40565b6040516020818303038152906040527fb60e72cc000000000000000000000000000000000000000000000000000000007bffffffffffffffffffffffffffffffffffffffffffffffffffffffff19166020820180517bffffffffffffffffffffffffffffffffffffffffffffffffffffffff8381831617835250505050610edd565b5050565b600073ffffffffffffffffffffffffffffffffffffffff168273ffffffffffffffffffffffffffffffffffffffff1614610d46576000829050610d44610d1b610e74565b30848473ffffffffffffffffffffffffffffffffffffffff16610f06909392919063ffffffff16565b505b5050565b600073ffffffffffffffffffffffffffffffffffffffff168273ffffffffffffffffffffffffffffffffffffffff1614610dbb576000829050610db5610d8e610e74565b838373ffffffffffffffffffffffffffffffffffffffff16610f8f9092919063ffffffff16565b50610e70565b6000610dc5610e74565b73ffffffffffffffffffffffffffffffffffffffff1682604051610de890611da1565b60006040518083038185875af1925050503d8060008114610e25576040519150601f19603f3d011682016040523d82523d6000602084013e610e2a565b606091505b5050905080610e6e576040517f08c379a0000000000000000000000000000000000000000000000000000000008152600401610e6590611e28565b60405180910390fd5b505b5050565b600033905090565b600060019054906101000a900460ff16610ecb576040517f08c379a0000000000000000000000000000000000000000000000000000000008152600401610ec290611c68565b60405180910390fd5b610edb610ed6610e74565b610ad9565b565b60008151905060006a636f6e736f6c652e6c6f679050602083016000808483855afa5050505050565b610f89846323b872dd60e01b858585604051602401610f2793929190611ac1565b604051602081830303815290604052907bffffffffffffffffffffffffffffffffffffffffffffffffffffffff19166020820180517bffffffffffffffffffffffffffffffffffffffffffffffffffffffff8381831617835250505050611015565b50505050565b6110108363a9059cbb60e01b8484604051602401610fae929190611e48565b604051602081830303815290604052907bffffffffffffffffffffffffffffffffffffffffffffffffffffffff19166020820180517bffffffffffffffffffffffffffffffffffffffffffffffffffffffff8381831617835250505050611015565b505050565b6000611077826040518060400160405280602081526020017f5361666545524332303a206c6f772d6c6576656c2063616c6c206661696c65648152508573ffffffffffffffffffffffffffffffffffffffff166110dc9092919063ffffffff16565b90506000815111156110d757808060200190518101906110979190611ea9565b6110d6576040517f08c379a00000000000000000000000000000000000000000000000000000000081526004016110cd90611f48565b60405180910390fd5b5b505050565b60606110eb84846000856110f4565b90509392505050565b606082471015611139576040517f08c379a000000000000000000000000000000000000000000000000000000000815260040161113090611fda565b60405180910390fd5b61114285610a5d565b611181576040517f08c379a000000000000000000000000000000000000000000000000000000000815260040161117890612046565b60405180910390fd5b6000808673ffffffffffffffffffffffffffffffffffffffff1685876040516111aa91906120a2565b60006040518083038185875af1925050503d80600081146111e7576040519150601f19603f3d011682016040523d82523d6000602084013e6111ec565b606091505b50915091506111fc828286611208565b92505050949350505050565b6060831561121857829050611268565b60008351111561122b5782518084602001fd5b816040517f08c379a000000000000000000000000000000000000000000000000000000000815260040161125f91906120b9565b60405180910390fd5b9392505050565b600080fd5b600073ffffffffffffffffffffffffffffffffffffffff82169050919050565b600061129f82611274565b9050919050565b6112af81611294565b81146112ba57600080fd5b50565b6000813590506112cc816112a6565b92915050565b6000819050919050565b6112e5816112d2565b81146112f057600080fd5b50565b600081359050611302816112dc565b92915050565b600063ffffffff82169050919050565b61132181611308565b811461132c57600080fd5b50565b60008135905061133e81611318565b92915050565b6000806000806080858703121561135e5761135d61126f565b5b600061136c878288016112bd565b945050602061137d878288016112bd565b935050604061138e878288016112f3565b925050606061139f8782880161132f565b91505092959194509250565b600080604083850312156113c2576113c161126f565b5b60006113d0858286016112bd565b92505060206113e1858286016112bd565b9150509250929050565b6113f4816112d2565b82525050565b61140381611308565b82525050565b600060408201905061141e60008301856113eb565b61142b60208301846113fa565b9392505050565b60008060006060848603121561144b5761144a61126f565b5b6000611459868287016112bd565b935050602061146a868287016112f3565b925050604061147b868287016112bd565b9150509250925092565b61148e81611294565b82525050565b60006020820190506114a96000830184611485565b92915050565b6000806000606084860312156114c8576114c761126f565b5b60006114d6868287016112bd565b93505060206114e7868287016112bd565b92505060406114f8868287016112f3565b9150509250925092565b6000602082840312156115185761151761126f565b5b6000611526848285016112bd565b91505092915050565b600082825260208201905092915050565b7f52617465206d7573742067726561746572207468616e20300000000000000000600082015250565b600061157660188361152f565b915061158182611540565b602082019050919050565b600060208201905081810360008301526115a581611569565b9050919050565b60006080820190506115c16000830187611485565b6115ce6020830186611485565b6115db60408301856113eb565b6115e860608301846113fa565b95945050505050565b7f496e697469616c697a61626c653a20636f6e747261637420697320616c72656160008201527f647920696e697469616c697a6564000000000000000000000000000000000000602082015250565b600061164d602e8361152f565b9150611658826115f1565b604082019050919050565b6000602082019050818103600083015261167c81611640565b9050919050565b6000819050919050565b600060ff82169050919050565b6000819050919050565b60006116bf6116ba6116b584611683565b61169a565b61168d565b9050919050565b6116cf816116a4565b82525050565b60006020820190506116ea60008301846116c6565b92915050565b7f546f6b656e20696e20616e6420746f6b656e206f7574206d757374206265206460008201527f6966666572656e74000000000000000000000000000000000000000000000000602082015250565b600061174c60288361152f565b9150611757826116f0565b604082019050919050565b6000602082019050818103600083015261177b8161173f565b9050919050565b7f52617465206d7573742062652067726561746572207468616e20300000000000600082015250565b60006117b8601b8361152f565b91506117c382611782565b602082019050919050565b600060208201905081810360008301526117e7816117ab565b9050919050565b7f416d6f756e74206d7573742062652067726561746572207468616e2030000000600082015250565b6000611824601d8361152f565b915061182f826117ee565b602082019050919050565b6000602082019050818103600083015261185381611817565b9050919050565b7f4e487b7100000000000000000000000000000000000000000000000000000000600052601160045260246000fd5b60008160011c9050919050565b6000808291508390505b60018511156118e0578086048111156118bc576118bb61185a565b5b60018516156118cb5780820291505b80810290506118d985611889565b94506118a0565b94509492505050565b6000826118f957600190506119b5565b8161190757600090506119b5565b816001811461191d576002811461192757611956565b60019150506119b5565b60ff8411156119395761193861185a565b5b8360020a9150848211156119505761194f61185a565b5b506119b5565b5060208310610133831016604e8410600b841016171561198b5782820a9050838111156119865761198561185a565b5b6119b5565b6119988484846001611896565b925090508184048111156119af576119ae61185a565b5b81810290505b9392505050565b60006119c7826112d2565b91506119d283611308565b92506119ff7fffffffffffffffffffffffffffffffffffffffffffffffffffffffffffffffff84846118e9565b905092915050565b6000611a12826112d2565b9150611a1d836112d2565b9250817fffffffffffffffffffffffffffffffffffffffffffffffffffffffffffffffff0483118215151615611a5657611a5561185a565b5b828202905092915050565b7f4e487b7100000000000000000000000000000000000000000000000000000000600052601260045260246000fd5b6000611a9b826112d2565b9150611aa6836112d2565b925082611ab657611ab5611a61565b5b828204905092915050565b6000606082019050611ad66000830186611485565b611ae36020830185611485565b611af060408301846113eb565b949350505050565b7f4f776e61626c653a206e6577206f776e657220697320746865207a65726f206160008201527f6464726573730000000000000000000000000000000000000000000000000000602082015250565b6000611b5460268361152f565b9150611b5f82611af8565b604082019050919050565b60006020820190508181036000830152611b8381611b47565b9050919050565b7f4f776e61626c653a2063616c6c6572206973206e6f7420746865206f776e6572600082015250565b6000611bc060208361152f565b9150611bcb82611b8a565b602082019050919050565b60006020820190508181036000830152611bef81611bb3565b9050919050565b7f496e697469616c697a61626c653a20636f6e7472616374206973206e6f74206960008201527f6e697469616c697a696e67000000000000000000000000000000000000000000602082015250565b6000611c52602b8361152f565b9150611c5d82611bf6565b604082019050919050565b60006020820190508181036000830152611c8181611c45565b9050919050565b600081519050919050565b60005b83811015611cb1578082015181840152602081019050611c96565b83811115611cc0576000848401525b50505050565b6000601f19601f8301169050919050565b6000611ce282611c88565b611cec818561152f565b9350611cfc818560208601611c93565b611d0581611cc6565b840191505092915050565b60006040820190508181036000830152611d2a8185611cd7565b9050611d396020830184611485565b9392505050565b60006040820190508181036000830152611d5a8185611cd7565b9050611d6960208301846113eb565b9392505050565b600081905092915050565b50565b6000611d8b600083611d70565b9150611d9682611d7b565b600082019050919050565b6000611dac82611d7e565b9150819050919050565b7f5472616e7366657220746f6b656e206661696c65642064756520746f2065727260008201527f6f72730000000000000000000000000000000000000000000000000000000000602082015250565b6000611e1260238361152f565b9150611e1d82611db6565b604082019050919050565b60006020820190508181036000830152611e4181611e05565b9050919050565b6000604082019050611e5d6000830185611485565b611e6a60208301846113eb565b9392505050565b60008115159050919050565b611e8681611e71565b8114611e9157600080fd5b50565b600081519050611ea381611e7d565b92915050565b600060208284031215611ebf57611ebe61126f565b5b6000611ecd84828501611e94565b91505092915050565b7f5361666545524332303a204552433230206f7065726174696f6e20646964206e60008201527f6f74207375636365656400000000000000000000000000000000000000000000602082015250565b6000611f32602a8361152f565b9150611f3d82611ed6565b604082019050919050565b60006020820190508181036000830152611f6181611f25565b9050919050565b7f416464726573733a20696e73756666696369656e742062616c616e636520666f60008201527f722063616c6c0000000000000000000000000000000000000000000000000000602082015250565b6000611fc460268361152f565b9150611fcf82611f68565b604082019050919050565b60006020820190508181036000830152611ff381611fb7565b9050919050565b7f416464726573733a2063616c6c20746f206e6f6e2d636f6e7472616374000000600082015250565b6000612030601d8361152f565b915061203b82611ffa565b602082019050919050565b6000602082019050818103600083015261205f81612023565b9050919050565b600081519050919050565b600061207c82612066565b6120868185611d70565b9350612096818560208601611c93565b80840191505092915050565b60006120ae8284612071565b915081905092915050565b600060208201905081810360008301526120d38184611cd7565b90509291505056fea26469706673582212204c436a8f83b12c155723ae205c98048001cfac08b691d5fd401979c14356abd664736f6c63430008090033",
  "linkReferences": {},
  "deployedLinkReferences": {}
}